{
  "_format": "hh-sol-artifact-1",
  "contractName": "MyMemeCoin",
  "sourceName": "contracts/memeCoin.sol",
  "abi": [
    {
      "inputs": [],
      "stateMutability": "nonpayable",
      "type": "constructor"
    },
    {
      "anonymous": false,
      "inputs": [
        {
          "indexed": true,
          "internalType": "address",
          "name": "owner",
          "type": "address"
        },
        {
          "indexed": true,
          "internalType": "address",
          "name": "spender",
          "type": "address"
        },
        {
          "indexed": false,
          "internalType": "uint256",
          "name": "value",
          "type": "uint256"
        }
      ],
      "name": "Approval",
      "type": "event"
    },
    {
      "anonymous": false,
      "inputs": [
        {
          "indexed": true,
          "internalType": "address",
          "name": "previousOwner",
          "type": "address"
        },
        {
          "indexed": true,
          "internalType": "address",
          "name": "newOwner",
          "type": "address"
        }
      ],
      "name": "OwnershipTransferred",
      "type": "event"
    },
    {
      "anonymous": false,
      "inputs": [
        {
          "indexed": true,
          "internalType": "address",
          "name": "from",
          "type": "address"
        },
        {
          "indexed": true,
          "internalType": "address",
          "name": "to",
          "type": "address"
        },
        {
          "indexed": false,
          "internalType": "uint256",
          "name": "value",
          "type": "uint256"
        }
      ],
      "name": "Transfer",
      "type": "event"
    },
    {
      "anonymous": false,
      "inputs": [
        {
          "indexed": false,
          "internalType": "uint256",
          "name": "amount",
          "type": "uint256"
        }
      ],
      "name": "tokenburned",
      "type": "event"
    },
    {
      "anonymous": false,
      "inputs": [
        {
          "indexed": false,
          "internalType": "uint256",
          "name": "amount",
          "type": "uint256"
        }
      ],
      "name": "tokenminted",
      "type": "event"
    },
    {
      "inputs": [
        {
          "internalType": "address",
          "name": "owner",
          "type": "address"
        },
        {
          "internalType": "address",
          "name": "spender",
          "type": "address"
        }
      ],
      "name": "allowance",
      "outputs": [
        {
          "internalType": "uint256",
          "name": "",
          "type": "uint256"
        }
      ],
      "stateMutability": "view",
      "type": "function"
    },
    {
      "inputs": [
        {
          "internalType": "address",
          "name": "spender",
          "type": "address"
        },
        {
          "internalType": "uint256",
          "name": "amount",
          "type": "uint256"
        }
      ],
      "name": "approve",
      "outputs": [
        {
          "internalType": "bool",
          "name": "",
          "type": "bool"
        }
      ],
      "stateMutability": "nonpayable",
      "type": "function"
    },
    {
      "inputs": [
        {
          "internalType": "address",
          "name": "account",
          "type": "address"
        }
      ],
      "name": "balanceOf",
      "outputs": [
        {
          "internalType": "uint256",
          "name": "",
          "type": "uint256"
        }
      ],
      "stateMutability": "view",
      "type": "function"
    },
    {
      "inputs": [
        {
          "internalType": "uint256",
          "name": "_amount",
          "type": "uint256"
        }
      ],
      "name": "burn",
      "outputs": [],
      "stateMutability": "nonpayable",
      "type": "function"
    },
    {
      "inputs": [
        {
          "internalType": "address",
          "name": "account",
          "type": "address"
        },
        {
          "internalType": "uint256",
          "name": "amount",
          "type": "uint256"
        }
      ],
      "name": "burnFrom",
      "outputs": [],
      "stateMutability": "nonpayable",
      "type": "function"
    },
    {
      "inputs": [],
      "name": "decimals",
      "outputs": [
        {
          "internalType": "uint8",
          "name": "",
          "type": "uint8"
        }
      ],
      "stateMutability": "view",
      "type": "function"
    },
    {
      "inputs": [
        {
          "internalType": "address",
          "name": "spender",
          "type": "address"
        },
        {
          "internalType": "uint256",
          "name": "subtractedValue",
          "type": "uint256"
        }
      ],
      "name": "decreaseAllowance",
      "outputs": [
        {
          "internalType": "bool",
          "name": "",
          "type": "bool"
        }
      ],
      "stateMutability": "nonpayable",
      "type": "function"
    },
    {
      "inputs": [
        {
          "internalType": "address",
          "name": "spender",
          "type": "address"
        },
        {
          "internalType": "uint256",
          "name": "addedValue",
          "type": "uint256"
        }
      ],
      "name": "increaseAllowance",
      "outputs": [
        {
          "internalType": "bool",
          "name": "",
          "type": "bool"
        }
      ],
      "stateMutability": "nonpayable",
      "type": "function"
    },
    {
      "inputs": [
        {
          "internalType": "uint256",
          "name": "_amount",
          "type": "uint256"
        }
      ],
      "name": "mintToken",
      "outputs": [],
      "stateMutability": "nonpayable",
      "type": "function"
    },
    {
      "inputs": [],
      "name": "name",
      "outputs": [
        {
          "internalType": "string",
          "name": "",
          "type": "string"
        }
      ],
      "stateMutability": "view",
      "type": "function"
    },
    {
      "inputs": [],
      "name": "owner",
      "outputs": [
        {
          "internalType": "address",
          "name": "",
          "type": "address"
        }
      ],
      "stateMutability": "view",
      "type": "function"
    },
    {
      "inputs": [],
      "name": "renounceOwnership",
      "outputs": [],
      "stateMutability": "nonpayable",
      "type": "function"
    },
    {
      "inputs": [],
      "name": "symbol",
      "outputs": [
        {
          "internalType": "string",
          "name": "",
          "type": "string"
        }
      ],
      "stateMutability": "view",
      "type": "function"
    },
    {
      "inputs": [],
      "name": "totalSupply",
      "outputs": [
        {
          "internalType": "uint256",
          "name": "",
          "type": "uint256"
        }
      ],
      "stateMutability": "view",
      "type": "function"
    },
    {
      "inputs": [
        {
          "internalType": "address",
          "name": "recipient",
          "type": "address"
        },
        {
          "internalType": "uint256",
          "name": "amount",
          "type": "uint256"
        }
      ],
      "name": "transfer",
      "outputs": [
        {
          "internalType": "bool",
          "name": "",
          "type": "bool"
        }
      ],
      "stateMutability": "nonpayable",
      "type": "function"
    },
    {
      "inputs": [
        {
          "internalType": "address",
          "name": "sender",
          "type": "address"
        },
        {
          "internalType": "address",
          "name": "recipient",
          "type": "address"
        },
        {
          "internalType": "uint256",
          "name": "amount",
          "type": "uint256"
        }
      ],
      "name": "transferFrom",
      "outputs": [
        {
          "internalType": "bool",
          "name": "",
          "type": "bool"
        }
      ],
      "stateMutability": "nonpayable",
      "type": "function"
    },
    {
      "inputs": [
        {
          "internalType": "address",
          "name": "newOwner",
          "type": "address"
        }
      ],
      "name": "transferOwnership",
      "outputs": [],
      "stateMutability": "nonpayable",
      "type": "function"
    }
  ],
  "bytecode": "0x60806040523480156200001157600080fd5b506040518060400160405280600a81526020017f4d794d656d65436f696e000000000000000000000000000000000000000000008152506040518060400160405280600381526020017f4d4d430000000000000000000000000000000000000000000000000000000000815250816003908051906020019062000096929190620003d5565b508060049080519060200190620000af929190620003d5565b505050620000d2620000c66200017b60201b60201c565b6200018360201b60201c565b6200011033620000e76200024960201b60201c565b600a620000f59190620005e0565b6103e86200010491906200071d565b6200025260201b60201c565b7fc2575802f1581ea29c8ee4d52663c886712ced7a9b6312e72e653acb60b1ef84620001416200024960201b60201c565b600a6200014f9190620005e0565b6103e86200015e91906200071d565b6040516200016d9190620004fa565b60405180910390a162000836565b600033905090565b6000600560009054906101000a900473ffffffffffffffffffffffffffffffffffffffff16905081600560006101000a81548173ffffffffffffffffffffffffffffffffffffffff021916908373ffffffffffffffffffffffffffffffffffffffff1602179055508173ffffffffffffffffffffffffffffffffffffffff168173ffffffffffffffffffffffffffffffffffffffff167f8be0079c531659141344cd1fd0a4f28419497f9722a3daafe3b4186f6b6457e060405160405180910390a35050565b60006012905090565b600073ffffffffffffffffffffffffffffffffffffffff168273ffffffffffffffffffffffffffffffffffffffff161415620002c5576040517f08c379a0000000000000000000000000000000000000000000000000000000008152600401620002bc90620004d8565b60405180910390fd5b620002d960008383620003cb60201b60201c565b8060026000828254620002ed919062000528565b92505081905550806000808473ffffffffffffffffffffffffffffffffffffffff1673ffffffffffffffffffffffffffffffffffffffff168152602001908152602001600020600082825462000344919062000528565b925050819055508173ffffffffffffffffffffffffffffffffffffffff16600073ffffffffffffffffffffffffffffffffffffffff167fddf252ad1be2c89b69c2b068fc378daa952ba7f163c4a11628f55a4df523b3ef83604051620003ab9190620004fa565b60405180910390a3620003c760008383620003d060201b60201c565b5050565b505050565b505050565b828054620003e39062000795565b90600052602060002090601f01602090048101928262000407576000855562000453565b82601f106200042257805160ff191683800117855562000453565b8280016001018555821562000453579182015b828111156200045257825182559160200191906001019062000435565b5b50905062000462919062000466565b5090565b5b808211156200048157600081600090555060010162000467565b5090565b600062000494601f8362000517565b91507f45524332303a206d696e7420746f20746865207a65726f2061646472657373006000830152602082019050919050565b620004d2816200077e565b82525050565b60006020820190508181036000830152620004f38162000485565b9050919050565b6000602082019050620005116000830184620004c7565b92915050565b600082825260208201905092915050565b600062000535826200077e565b915062000542836200077e565b9250827fffffffffffffffffffffffffffffffffffffffffffffffffffffffffffffffff038211156200057a5762000579620007cb565b5b828201905092915050565b6000808291508390505b6001851115620005d757808604811115620005af57620005ae620007cb565b5b6001851615620005bf5780820291505b8081029050620005cf8562000829565b94506200058f565b94509492505050565b6000620005ed826200077e565b9150620005fa8362000788565b9250620006297fffffffffffffffffffffffffffffffffffffffffffffffffffffffffffffffff848462000631565b905092915050565b60008262000643576001905062000716565b8162000653576000905062000716565b81600181146200066c57600281146200067757620006ad565b600191505062000716565b60ff8411156200068c576200068b620007cb565b5b8360020a915084821115620006a657620006a5620007cb565b5b5062000716565b5060208310610133831016604e8410600b8410161715620006e75782820a905083811115620006e157620006e0620007cb565b5b62000716565b620006f6848484600162000585565b9250905081840481111562000710576200070f620007cb565b5b81810290505b9392505050565b60006200072a826200077e565b915062000737836200077e565b9250817fffffffffffffffffffffffffffffffffffffffffffffffffffffffffffffffff0483118215151615620007735762000772620007cb565b5b828202905092915050565b6000819050919050565b600060ff82169050919050565b60006002820490506001821680620007ae57607f821691505b60208210811415620007c557620007c4620007fa565b5b50919050565b7f4e487b7100000000000000000000000000000000000000000000000000000000600052601160045260246000fd5b7f4e487b7100000000000000000000000000000000000000000000000000000000600052602260045260246000fd5b60008160011c9050919050565b611f3c80620008466000396000f3fe608060405234801561001057600080fd5b506004361061010b5760003560e01c8063715018a6116100a2578063a457c2d711610071578063a457c2d7146102a8578063a9059cbb146102d8578063c634d03214610308578063dd62ed3e14610324578063f2fde38b146103545761010b565b8063715018a61461024657806379cc6790146102505780638da5cb5b1461026c57806395d89b411461028a5761010b565b8063313ce567116100de578063313ce567146101ac57806339509351146101ca57806342966c68146101fa57806370a08231146102165761010b565b806306fdde0314610110578063095ea7b31461012e57806318160ddd1461015e57806323b872dd1461017c575b600080fd5b610118610370565b6040516101259190611b11565b60405180910390f35b6101486004803603810190610143919061151f565b610402565b6040516101559190611af6565b60405180910390f35b610166610420565b6040516101739190611cd3565b60405180910390f35b610196600480360381019061019191906114d0565b61042a565b6040516101a39190611af6565b60405180910390f35b6101b4610522565b6040516101c19190611cee565b60405180910390f35b6101e460048036038101906101df919061151f565b61052b565b6040516101f19190611af6565b60405180910390f35b610214600480360381019061020f919061155b565b6105d7565b005b610230600480360381019061022b919061146b565b610697565b60405161023d9190611cd3565b60405180910390f35b61024e6106df565b005b61026a6004803603810190610265919061151f565b610767565b005b6102746107e2565b6040516102819190611adb565b60405180910390f35b61029261080c565b60405161029f9190611b11565b60405180910390f35b6102c260048036038101906102bd919061151f565b61089e565b6040516102cf9190611af6565b60405180910390f35b6102f260048036038101906102ed919061151f565b610989565b6040516102ff9190611af6565b60405180910390f35b610322600480360381019061031d919061155b565b6109a7565b005b61033e60048036038101906103399190611494565b610a67565b60405161034b9190611cd3565b60405180910390f35b61036e6004803603810190610369919061146b565b610aee565b005b60606003805461037f90611e37565b80601f01602080910402602001604051908101604052809291908181526020018280546103ab90611e37565b80156103f85780601f106103cd576101008083540402835291602001916103f8565b820191906000526020600020905b8154815290600101906020018083116103db57829003601f168201915b5050505050905090565b600061041661040f610be6565b8484610bee565b6001905092915050565b6000600254905090565b6000610437848484610db9565b6000600160008673ffffffffffffffffffffffffffffffffffffffff1673ffffffffffffffffffffffffffffffffffffffff1681526020019081526020016000206000610482610be6565b73ffffffffffffffffffffffffffffffffffffffff1673ffffffffffffffffffffffffffffffffffffffff16815260200190815260200160002054905082811015610502576040517f08c379a00000000000000000000000000000000000000000000000000000000081526004016104f990611bd3565b60405180910390fd5b6105168561050e610be6565b858403610bee565b60019150509392505050565b60006012905090565b60006105cd610538610be6565b848460016000610546610be6565b73ffffffffffffffffffffffffffffffffffffffff1673ffffffffffffffffffffffffffffffffffffffff16815260200190815260200160002060008873ffffffffffffffffffffffffffffffffffffffff1673ffffffffffffffffffffffffffffffffffffffff168152602001908152602001600020546105c89190611d25565b610bee565b6001905092915050565b6105df610be6565b73ffffffffffffffffffffffffffffffffffffffff166105fd6107e2565b73ffffffffffffffffffffffffffffffffffffffff1614610653576040517f08c379a000000000000000000000000000000000000000000000000000000000815260040161064a90611bf3565b60405180910390fd5b61065d338261103a565b7f2fe5c0bb3fa95cec8bafdd2c20eb0e1cdd4d63a7f48b6cc8125e7a4d71eaba7b8160405161068c9190611cd3565b60405180910390a150565b60008060008373ffffffffffffffffffffffffffffffffffffffff1673ffffffffffffffffffffffffffffffffffffffff168152602001908152602001600020549050919050565b6106e7610be6565b73ffffffffffffffffffffffffffffffffffffffff166107056107e2565b73ffffffffffffffffffffffffffffffffffffffff161461075b576040517f08c379a000000000000000000000000000000000000000000000000000000000815260040161075290611bf3565b60405180910390fd5b6107656000611211565b565b600061077a83610775610be6565b610a67565b9050818110156107bf576040517f08c379a00000000000000000000000000000000000000000000000000000000081526004016107b690611c13565b60405180910390fd5b6107d3836107cb610be6565b848403610bee565b6107dd838361103a565b505050565b6000600560009054906101000a900473ffffffffffffffffffffffffffffffffffffffff16905090565b60606004805461081b90611e37565b80601f016020809104026020016040519081016040528092919081815260200182805461084790611e37565b80156108945780601f1061086957610100808354040283529160200191610894565b820191906000526020600020905b81548152906001019060200180831161087757829003601f168201915b5050505050905090565b600080600160006108ad610be6565b73ffffffffffffffffffffffffffffffffffffffff1673ffffffffffffffffffffffffffffffffffffffff16815260200190815260200160002060008573ffffffffffffffffffffffffffffffffffffffff1673ffffffffffffffffffffffffffffffffffffffff1681526020019081526020016000205490508281101561096a576040517f08c379a000000000000000000000000000000000000000000000000000000000815260040161096190611c93565b60405180910390fd5b61097e610975610be6565b85858403610bee565b600191505092915050565b600061099d610996610be6565b8484610db9565b6001905092915050565b6109af610be6565b73ffffffffffffffffffffffffffffffffffffffff166109cd6107e2565b73ffffffffffffffffffffffffffffffffffffffff1614610a23576040517f08c379a0000000000000000000000000000000000000000000000000000000008152600401610a1a90611bf3565b60405180910390fd5b610a2d33826112d7565b7fc2575802f1581ea29c8ee4d52663c886712ced7a9b6312e72e653acb60b1ef8481604051610a5c9190611cd3565b60405180910390a150565b6000600160008473ffffffffffffffffffffffffffffffffffffffff1673ffffffffffffffffffffffffffffffffffffffff16815260200190815260200160002060008373ffffffffffffffffffffffffffffffffffffffff1673ffffffffffffffffffffffffffffffffffffffff16815260200190815260200160002054905092915050565b610af6610be6565b73ffffffffffffffffffffffffffffffffffffffff16610b146107e2565b73ffffffffffffffffffffffffffffffffffffffff1614610b6a576040517f08c379a0000000000000000000000000000000000000000000000000000000008152600401610b6190611bf3565b60405180910390fd5b600073ffffffffffffffffffffffffffffffffffffffff168173ffffffffffffffffffffffffffffffffffffffff161415610bda576040517f08c379a0000000000000000000000000000000000000000000000000000000008152600401610bd190611b73565b60405180910390fd5b610be381611211565b50565b600033905090565b600073ffffffffffffffffffffffffffffffffffffffff168373ffffffffffffffffffffffffffffffffffffffff161415610c5e576040517f08c379a0000000000000000000000000000000000000000000000000000000008152600401610c5590611c73565b60405180910390fd5b600073ffffffffffffffffffffffffffffffffffffffff168273ffffffffffffffffffffffffffffffffffffffff161415610cce576040517f08c379a0000000000000000000000000000000000000000000000000000000008152600401610cc590611b93565b60405180910390fd5b80600160008573ffffffffffffffffffffffffffffffffffffffff1673ffffffffffffffffffffffffffffffffffffffff16815260200190815260200160002060008473ffffffffffffffffffffffffffffffffffffffff1673ffffffffffffffffffffffffffffffffffffffff168152602001908152602001600020819055508173ffffffffffffffffffffffffffffffffffffffff168373ffffffffffffffffffffffffffffffffffffffff167f8c5be1e5ebec7d5bd14f71427d1e84f3dd0314c0f7b2291e5b200ac8c7c3b92583604051610dac9190611cd3565b60405180910390a3505050565b600073ffffffffffffffffffffffffffffffffffffffff168373ffffffffffffffffffffffffffffffffffffffff161415610e29576040517f08c379a0000000000000000000000000000000000000000000000000000000008152600401610e2090611c53565b60405180910390fd5b600073ffffffffffffffffffffffffffffffffffffffff168273ffffffffffffffffffffffffffffffffffffffff161415610e99576040517f08c379a0000000000000000000000000000000000000000000000000000000008152600401610e9090611b33565b60405180910390fd5b610ea4838383611437565b60008060008573ffffffffffffffffffffffffffffffffffffffff1673ffffffffffffffffffffffffffffffffffffffff16815260200190815260200160002054905081811015610f2a576040517f08c379a0000000000000000000000000000000000000000000000000000000008152600401610f2190611bb3565b60405180910390fd5b8181036000808673ffffffffffffffffffffffffffffffffffffffff1673ffffffffffffffffffffffffffffffffffffffff16815260200190815260200160002081905550816000808573ffffffffffffffffffffffffffffffffffffffff1673ffffffffffffffffffffffffffffffffffffffff1681526020019081526020016000206000828254610fbd9190611d25565b925050819055508273ffffffffffffffffffffffffffffffffffffffff168473ffffffffffffffffffffffffffffffffffffffff167fddf252ad1be2c89b69c2b068fc378daa952ba7f163c4a11628f55a4df523b3ef846040516110219190611cd3565b60405180910390a361103484848461143c565b50505050565b600073ffffffffffffffffffffffffffffffffffffffff168273ffffffffffffffffffffffffffffffffffffffff1614156110aa576040517f08c379a00000000000000000000000000000000000000000000000000000000081526004016110a190611c33565b60405180910390fd5b6110b682600083611437565b60008060008473ffffffffffffffffffffffffffffffffffffffff1673ffffffffffffffffffffffffffffffffffffffff1681526020019081526020016000205490508181101561113c576040517f08c379a000000000000000000000000000000000000000000000000000000000815260040161113390611b53565b60405180910390fd5b8181036000808573ffffffffffffffffffffffffffffffffffffffff1673ffffffffffffffffffffffffffffffffffffffff1681526020019081526020016000208190555081600260008282546111939190611d7b565b92505081905550600073ffffffffffffffffffffffffffffffffffffffff168373ffffffffffffffffffffffffffffffffffffffff167fddf252ad1be2c89b69c2b068fc378daa952ba7f163c4a11628f55a4df523b3ef846040516111f89190611cd3565b60405180910390a361120c8360008461143c565b505050565b6000600560009054906101000a900473ffffffffffffffffffffffffffffffffffffffff16905081600560006101000a81548173ffffffffffffffffffffffffffffffffffffffff021916908373ffffffffffffffffffffffffffffffffffffffff1602179055508173ffffffffffffffffffffffffffffffffffffffff168173ffffffffffffffffffffffffffffffffffffffff167f8be0079c531659141344cd1fd0a4f28419497f9722a3daafe3b4186f6b6457e060405160405180910390a35050565b600073ffffffffffffffffffffffffffffffffffffffff168273ffffffffffffffffffffffffffffffffffffffff161415611347576040517f08c379a000000000000000000000000000000000000000000000000000000000815260040161133e90611cb3565b60405180910390fd5b61135360008383611437565b80600260008282546113659190611d25565b92505081905550806000808473ffffffffffffffffffffffffffffffffffffffff1673ffffffffffffffffffffffffffffffffffffffff16815260200190815260200160002060008282546113ba9190611d25565b925050819055508173ffffffffffffffffffffffffffffffffffffffff16600073ffffffffffffffffffffffffffffffffffffffff167fddf252ad1be2c89b69c2b068fc378daa952ba7f163c4a11628f55a4df523b3ef8360405161141f9190611cd3565b60405180910390a36114336000838361143c565b5050565b505050565b505050565b60008135905061145081611ed8565b92915050565b60008135905061146581611eef565b92915050565b60006020828403121561147d57600080fd5b600061148b84828501611441565b91505092915050565b600080604083850312156114a757600080fd5b60006114b585828601611441565b92505060206114c685828601611441565b9150509250929050565b6000806000606084860312156114e557600080fd5b60006114f386828701611441565b935050602061150486828701611441565b925050604061151586828701611456565b9150509250925092565b6000806040838503121561153257600080fd5b600061154085828601611441565b925050602061155185828601611456565b9150509250929050565b60006020828403121561156d57600080fd5b600061157b84828501611456565b91505092915050565b61158d81611daf565b82525050565b61159c81611dc1565b82525050565b60006115ad82611d09565b6115b78185611d14565b93506115c7818560208601611e04565b6115d081611ec7565b840191505092915050565b60006115e8602383611d14565b91507f45524332303a207472616e7366657220746f20746865207a65726f206164647260008301527f65737300000000000000000000000000000000000000000000000000000000006020830152604082019050919050565b600061164e602283611d14565b91507f45524332303a206275726e20616d6f756e7420657863656564732062616c616e60008301527f63650000000000000000000000000000000000000000000000000000000000006020830152604082019050919050565b60006116b4602683611d14565b91507f4f776e61626c653a206e6577206f776e657220697320746865207a65726f206160008301527f64647265737300000000000000000000000000000000000000000000000000006020830152604082019050919050565b600061171a602283611d14565b91507f45524332303a20617070726f766520746f20746865207a65726f20616464726560008301527f73730000000000000000000000000000000000000000000000000000000000006020830152604082019050919050565b6000611780602683611d14565b91507f45524332303a207472616e7366657220616d6f756e742065786365656473206260008301527f616c616e636500000000000000000000000000000000000000000000000000006020830152604082019050919050565b60006117e6602883611d14565b91507f45524332303a207472616e7366657220616d6f756e742065786365656473206160008301527f6c6c6f77616e63650000000000000000000000000000000000000000000000006020830152604082019050919050565b600061184c602083611d14565b91507f4f776e61626c653a2063616c6c6572206973206e6f7420746865206f776e65726000830152602082019050919050565b600061188c602483611d14565b91507f45524332303a206275726e20616d6f756e74206578636565647320616c6c6f7760008301527f616e6365000000000000000000000000000000000000000000000000000000006020830152604082019050919050565b60006118f2602183611d14565b91507f45524332303a206275726e2066726f6d20746865207a65726f2061646472657360008301527f73000000000000000000000000000000000000000000000000000000000000006020830152604082019050919050565b6000611958602583611d14565b91507f45524332303a207472616e736665722066726f6d20746865207a65726f20616460008301527f64726573730000000000000000000000000000000000000000000000000000006020830152604082019050919050565b60006119be602483611d14565b91507f45524332303a20617070726f76652066726f6d20746865207a65726f2061646460008301527f72657373000000000000000000000000000000000000000000000000000000006020830152604082019050919050565b6000611a24602583611d14565b91507f45524332303a2064656372656173656420616c6c6f77616e63652062656c6f7760008301527f207a65726f0000000000000000000000000000000000000000000000000000006020830152604082019050919050565b6000611a8a601f83611d14565b91507f45524332303a206d696e7420746f20746865207a65726f2061646472657373006000830152602082019050919050565b611ac681611ded565b82525050565b611ad581611df7565b82525050565b6000602082019050611af06000830184611584565b92915050565b6000602082019050611b0b6000830184611593565b92915050565b60006020820190508181036000830152611b2b81846115a2565b905092915050565b60006020820190508181036000830152611b4c816115db565b9050919050565b60006020820190508181036000830152611b6c81611641565b9050919050565b60006020820190508181036000830152611b8c816116a7565b9050919050565b60006020820190508181036000830152611bac8161170d565b9050919050565b60006020820190508181036000830152611bcc81611773565b9050919050565b60006020820190508181036000830152611bec816117d9565b9050919050565b60006020820190508181036000830152611c0c8161183f565b9050919050565b60006020820190508181036000830152611c2c8161187f565b9050919050565b60006020820190508181036000830152611c4c816118e5565b9050919050565b60006020820190508181036000830152611c6c8161194b565b9050919050565b60006020820190508181036000830152611c8c816119b1565b9050919050565b60006020820190508181036000830152611cac81611a17565b9050919050565b60006020820190508181036000830152611ccc81611a7d565b9050919050565b6000602082019050611ce86000830184611abd565b92915050565b6000602082019050611d036000830184611acc565b92915050565b600081519050919050565b600082825260208201905092915050565b6000611d3082611ded565b9150611d3b83611ded565b9250827fffffffffffffffffffffffffffffffffffffffffffffffffffffffffffffffff03821115611d7057611d6f611e69565b5b828201905092915050565b6000611d8682611ded565b9150611d9183611ded565b925082821015611da457611da3611e69565b5b828203905092915050565b6000611dba82611dcd565b9050919050565b60008115159050919050565b600073ffffffffffffffffffffffffffffffffffffffff82169050919050565b6000819050919050565b600060ff82169050919050565b60005b83811015611e22578082015181840152602081019050611e07565b83811115611e31576000848401525b50505050565b60006002820490506001821680611e4f57607f821691505b60208210811415611e6357611e62611e98565b5b50919050565b7f4e487b7100000000000000000000000000000000000000000000000000000000600052601160045260246000fd5b7f4e487b7100000000000000000000000000000000000000000000000000000000600052602260045260246000fd5b6000601f19601f8301169050919050565b611ee181611daf565b8114611eec57600080fd5b50565b611ef881611ded565b8114611f0357600080fd5b5056fea2646970667358221220e72825398e7a2c6c085b6b64c47e15553bba0f1177415ab33b0532bff4ba8da764736f6c63430008000033",
  "linkReferences": {},
  "deployedLinkReferences": {}
}